:1000000080680020E5DB00006FC70100D1DB000045
:10001000D1DB0000D1DB0000D1DB000000000000DC
:10002000000000000000000000000000B1DD000042
:10003000D1DB0000000000007DDD0000D1DB00000E
:10004000E9DF000067E70100E9DF0000E9DF000009
:10005000E9DF0000E9DF0000E9DF0000E9DF000080
:1000600037E70100E9DF0000E9DF000051E70100A8
:10007000E9DF0000E9DF0000E9DF0000E9DF000060
:10008000E9DF0000E9DF0000E9DF0000E9DF000050
:10009000E9DF0000E9DF0000E9DF0000E9DF000040
:1000A000E9DF0000E9DF0000E9DF0000E9DF000030
:1000B000E9DF0000E9DF0000E9DF0000E9DF000020
:1000C000E9DF0000E9DF0000E9DF0000E9DF000010
:0C00D000E9DF0000E9DF0000E9DF0000CC
:1000DC0053B94AB9002908BF00281CBF4FF0FF31A3
:1000EC004FF0FF3000F00CB8ADF1080C6DE904CE08
:1000FC0007F0ACFBDDF804E0DDE9022304B0704747
:10010C00704700BF1FB50B4B01934FF48C73ADF8C8
:10011C00083008238DF80A3083788DF80B3001A94C
:10012C00FF2301208DF80C3000F024FB05B05DF8A6
:10013C0004FB00BF778F0000F7B504460D4641B9AC
:10014C00124B1B78012B04D0019101A80121FFF760
:10015C00F3FF23680E4E0F4F0733002D23F00703D8
:10016C0023600CBF2046002000F0E0FA002556F872
:10017C00043B0BB1384698470135032DF7D100F0FD
:10018C0049FB23680344236003B0F0BD180800202A
:10019C00400000201A0800202DE9F7432A4C01905A
:1001AC00074601A80E46FFF7C7FFA578E3784FF086
:1001BC0000091D44EDB2C8465FFA89F39D4238D858
:1001CC000198033020F00300002E0190414618BF27
:1001DC00002000F061FC019D21790544019589B155
:1001EC006379627C0335002E25F003051A44D2B2E4
:1001FC00A38901950CBF2846002000F0A7FC019BA9
:10020C0003440193A17B79B123796BB1019B073333
:10021C0023F00703002E0CBF18460020019301F0B9
:10022C0031FE019B034401930198C01B03B0BDE850
:10023C00F083A37A627A217AE07907F0CDFF09F195
:10024C0001098044B8E700BF180800208FB572B6CA
:10025C00194B9D6AE5B9BFF34F8F1849184BCA6803
:10026C0002F4E0621343CB60BFF34F8F00BFFDE796
:10027C00B4FBF6F4DAB20133002CF9D102F110031D
:10028C006B440A2603F80C4C32B901A8A847E2E7E4
:10029C00044600230A26EDE7531E04AC54FA83F4FB
:1002AC00DAB2C3B2B3FBF6F706FB1733303304F8FC
:1002BC000C3CB0FBF6F0E7E71808002000ED00E07E
:1002CC000400FA051FB5104B9A7A8DF809205A7A5A
:1002DC008DF8082002A81A7ADB79ADF80C20ADF85D
:1002EC000A3001F0E5F818B1DB210320FFF7AEFF6F
:1002FC00012301A88DF8043008F070FC08B1DF214F
:10030C00F3E705B05DF804FB1808002038B5044687
:10031C0090B306F0A7FE10B94FF0FF3038BD03F0D4
:10032C0075FDB0F5FA7FF7D8164D1748AC6200F0A2
:10033C009FF9164B28460024C3E900449C6000F842
:10034C00024B2622214607F00FFA0123EB702B718A
:10035C001B23EB7140F21B332B810223AB721F2347
:10036C00AB810823AB73EFF3108572B600F0C4FCBD
:10037C002DB962B62846D1E76FF01500CEE72046BE
:10038C00CCE700BF18080020D1020000400000207C
:10039C0010B5002836D1204C2378022B2FD059B120
:1003AC00002A32D0023905292CD8DFE801F0030FDE
:1003BC001D2B20231378E37001210020FFF7ECFEA6
:1003CC00B0F5803F24DA0123237010BD9378E3B19C
:1003DC00D378D3B113781A2B17D953781A2B14D985
:1003EC001368C4F80730E7E713782371E4E7138840
:1003FC00A381E1E71388FF2B07D8A373DCE74FF049
:10040C00FF30E2E76FF02C00DFE76FF01500DCE760
:10041C006FF00B00D9E700BF1808002070B50D462F
:10042C000646E8B1E1B111F0070419D100F066F805
:10043C00C8B1304606F08AFF0C4E214686F82C00D7
:10044C002846FFF7A9FE08F057FF96F82C00214626
:10045C0001F072F8FFF736FF02233370204670BDAF
:10046C006FF01500FBE74FF0FF30F8E7180800209D
:10047C0010B5074C2378022B05D101F075F894F8D0
:10048C002C0006F07FFF07F096FF0020207010BDB7
:10049C001808002050B1074B03F1140253F8041B49
:1004AC0040F8041B9342F9D1002070476FF01500FF
:1004BC00704700BFFC66020010B5064B1C7834B9BF
:1004CC0001F020F8044B054A5A60204610BD4FF04D
:1004DC00FF30FBE71808002040000020110100004D
:1004EC00024B02681A600020704700BF48080020C9
:1004FC00014B1B68184700BF48080020024B1868C6
:10050C00003818BF01207047480800202DE9F3413E
:10051C00284E031D04463360304601F081FB02284F
:10052C00054607D12349204607F0E0FA284602B0D9
:10053C00BDE8F081042836D13378072B18D13E2042
:10054C0000F04EF878B9F378327901A943EA022326
:10055C006846ADF8003007F063FD0028DCD053216D
:10056C000820FFF773FE052000F072F80028EAD08F
:10057C003146204607F01FFBB0F5817F01D3722175
:10058C00EEE70028C8D0277894F80280384600F0AF
:10059C0027F80028C0D03E2FC8D1404600F058F8AC
:1005AC000028C3D1B8E70828C0D10249204607F07B
:1005BC00CCFABBE74C080020074B4FF0FF3141F65B
:1005CC00FF72C3E9001205490022C1E900221F2174
:1005DC00C3E90212704700BF000000209008002001
:1005EC003F280CD801380B4BC0F3421200F01F000F
:1005FC0053F8223023FA00F000F001007047FF2876
:10060C0006D04038C0F34212034B00F01F00EFE756
:10061C000120704700000020900800200146074B85
:10062C00006849681A4603C240F48C221A6041F0F3
:10063C00107242F4FF625A60704700BF0000002045
:10064C000246024B0068516803C370470800002043
:10065C000138064BC0F3421203EB820300F01F007B
:10066C009B6823FA00F000F00100704700000020A6
:10067C00014B1860704700BF9808002010B5FFF7B9
:10068C009BFF08F09AF8034B1B68044603B198478C
:10069C00204610BD980800200B880288F0B5C3F3E3
:1006AC000E049EB204F11803C57CC35A05352A44C6
:1006BC002B4497B213FA82F3013B4288B3FBF7F356
:1006CC0013FB07439BB29A42044A93BF22EA0603E8
:1006DC00324013439BB20B80F0BD00BF0080FFFF84
:1006EC0010B5114B00EB41041A786389B3FBF2F39C
:1006FC0003FB0223013A1A44B2F5706F027928BF4A
:10070C0000231A448378B2FBF3F0194403FB102046
:10071C00091AB1FBF3F003FB101313446FEA4343C4
:10072C006FEA5343638110BD9C08002010B5104B39
:10073C00C8B15A78022A04D040F22B111720FFF7C7
:10074C0085FD03225A70026812F0070102D04FF4A3
:10075C009871F3E75C685A6022440260C3E90311A4
:10076C009A60596110BD0122C3E901005A70F9E782
:10077C009C0800202DE9F041254E96F801E00EF082
:10078C00FD0CBCF1010F04D040F245111720FFF70E
:10079C005DFD91F80680B8F1080F02D940F24711BF
:1007AC00F4E7CF7997B34546022D726838BF02251E
:1007BC007B1D5C0002EB43036A1E13446D422B400D
:1007CC008D884544013DC8F100022A404FF6FE7564
:1007DC00AA4202D94FF4A971D8E7BEF1030F12D186
:1007EC0006EB80001C1BC56815B140F25711CDE714
:1007FC00C460A770228084F803C0087A096820714D
:10080C00080CE080218107FB02337360BDE8F081A6
:10081C009C0800202DE9F047364C6378012B65D0FD
:10082C00032B04D040F267111720FFF70FFDD4E91A
:10083C0001329A4202D04FF4B571F5E725460023F8
:10084C0005F80C3B1E460222994655F82200013A47
:10085C0058B190F804808178B8F1FF0F2FD180F84F
:10086C0004908E423CBFCEB20123511CEDD103B19A
:10087C002670022640F6FF6955F826709FBB013E94
:10088C00FAD2042363700020BDE8F08755F82CE001
:10089C00BEF1000F06D09EF804A0C24504BF9EF81E
:1008AC0002E077440CF1FF3CBCF1000FEEDA394466
:1008BC00FF2907D903B126704FF48371B4E794462E
:1008CC000027F1E70771CCE707EB41033846A3F8A3
:1008DC000A90FFF705FF08F10108BB785FFA88F171
:1008EC008B42F1D8CBE74FF00008F6E702236068A3
:1008FC006370C9E79C080020F8B54FF6FF730380BE
:10090C00184B03EB81030546D868B8B18678037998
:10091C00B3FBF6F206FB1233DBB219460A1D00EBF1
:10092C004202B2F902705488002F09DB0131B1FB8D
:10093C00F6F206FB1211C9B28B42EFD10020F8BDC2
:10094C00FF29FBD0C4F30E03C4782B8024B94FF4D9
:10095C00D9711720FFF77AFC5380BDE8F84007F0F7
:10096C001ABC00BF9C0800201D4B03EB810370B523
:10097C00DC68054644B3030404D54FF4E07117203A
:10098C00FFF764FC0146204607F0E7FBFF28014611
:10099C0004D02046BDE8704007F0FDBBA078B5FB45
:1009AC00F0F300FB1353DBB219460A1D04EB4206AD
:1009BC00B6F90260002E09DB0131B1FBF0F200FB4D
:1009CC001211C9B28B42F0D1002070BDFF29FBD0AF
:1009DC008B4204EB42021CBF0023E3705580D8E726
:1009EC009C080020094B03EB810310B5DC68014621
:1009FC00204607F0B2FBFF28014604D02046BDE894
:100A0C00104007F0C8BB002010BD00BF9C080020A0
:100A1C00F8B5104B03EB81030746DC680146204612
:100A2C0007F09BFBFF28054611D0E688238953EA83
:100A3C00064606D00146204607F0ADFB0146384677
:100A4C00B04720462946FFF74BFE0020F8BD032097
:100A5C00FCE700BF9C08002038B50E4B827903EBF5
:100A6C0082030446D86808B9022038BD8278E1793F
:100A7C009142F9D24B1CE37100EB41035D89B3F950
:100A8C000A30002BF3DBA58007F085FB20600020EB
:100A9C00EBE700BF9C08002070B5044610F0030083
:100AAC000E4603D049211820FFF7D0FB07F00DFBB1
:100ABC00054624B103483146046007F006FB28467E
:100ACC0070BD00BFB40800202DE9F04F1E4C85B05E
:100ADC0092462268BDF83CB098468146BDF8383045
:100AEC000D461AB95B211820FFF7B0FB1A460A21F4
:100AFC005046039307F0C4FA5A460646092140466D
:100B0C0007F0BEFA31180746206807F0FCFA039B81
:100B1C00C9F8000018B9286005B0BDE8F08F841939
:100B2C002C60D9F800000093524631460A2307F096
:100B3C007FFA2868CDF838B009234246394605B00B
:100B4C00BDE8F04F07F074BAB4080020F8B51144B2
:100B5C001D4EC9B210F00305317003D04D21092090
:100B6C00FFF774FB1F2B19D89B009BB2033323F0A8
:100B7C0003039BB208B17060338101EB810476688A
:100B8C00E2004FF0010C00EBC404EFB2B94212D8F2
:100B9C00D01D03FB010020F00700F8BDFF2B4FEA2E
:100BAC00430204D9FF339342DFDB93B2DEE77C2AA6
:100BBC00FBDC7C23DAE710B186F800C074600135E9
:100BCC0028361C44E1E700BFB808002038B5144AA9
:100BDC00147853680021C8B2844203D8A821092094
:100BEC00FFF734FB1846013105782833002DF2D07D
:100BFC000021817001241289447044688161C161B3
:100C0C00920800F12001051D21F8022B994245F8AC
:100C1C00044B1444F8D100234361037038BD00BF6A
:100C2C00B80800202DE9F8434B7880460C4602F0BA
:100C3C00040602F0FB07D3B1DFB12E4BD4F80490BD
:100C4C001D89B7BB01236370AD08A761E76104F18F
:100C5C0020034A46211D04F1280023F8025B984228
:100C6C0041F8042B2A44F8D10023636101E0002FE2
:100C7C00E3D0FF23A370002E18BF0226A3191B7DFF
:100C8C00032B03D1022F1CBF0136F6B2A31901228C
:100C9C001A7506F10C0204EB8606002324F81230B8
:100CAC007268A370C8F80020A8F804304046BDE86C
:100CBC00F883002114226170A01806F055FDB5F5DB
:100CCC00FF7F0FD26B08ED1AADB209EB0502C4F829
:100CDC0004902584A2606384C4F80C90A5842261DE
:100CEC00E384C6E7B5F5EE6F4FF0FF03EBD940F2A6
:100CFC007265EAE7B8080020134B012200214FF07F
:100D0C00FF309A60C3F80012C3F80803C3F800154B
:100D1C00C3F804259A60C3F80803C3F80015C3F898
:100D2C0004250A490A4A03F580334FF40040C3F8FE
:100D3C000825C1F88000BFF34F8FBFF36F8FC1F848
:100D4C008001C3F80825704700F0004000E100E086
:100D5C000000F63F014B1876704700BFC808002012
:100D6C0090F8E8302DE9F04104460D46164603F0A4
:100D7C00FF0813B10C20BDE8F0810146474804F090
:100D8C00CFFE20280746F5D05022414604F1C8007A
:100D9C0006F0EAFC012384F8C870C4F8CC5084F83F
:100DAC00E83035B100F0FAFF00F00700013085F8AB
:100DBC003802204607F001FB00270223A4F8FA3082
:100DCC00A4F8F80084F8F07003F026F8B4F8F850A2
:100DDC009D350544204608F0AEF9ADB2014668B326
:100DEC0007F03EFF00F5CD6189B2304602F0E4FF1A
:100DFC003044C4F8F40008F0FFFA281841F100015F
:100E0C00C4E94001012084F8D000E78408F060FABE
:100E1C00DB3E361AC4F8D4604FF0FF326FF000435B
:100E2C00C4E9422394F8C80004F1F00104F0D8FF9F
:100E3C0030BB40F2EF113020FFF708FA204608F0E3
:100E4C009EF8174FDB30C4F8F400388A40B1E08CC0
:100E5C0030B100F0A3FF3B8AB0FBF3F202FB1300AE
:100E6C00054408F0C9FA2D1841F10001C4E94051BC
:100E7C00002ED1D0751941F10001C4E94251D1E7DE
:100E8C00D4E9402300252046C4E93823A4F8EA50CD
:100E9C00294608F07CF928466DE700BF598400000C
:100EAC0084090020F0B5002385B0CDE9003301237F
:100EBC008DF806306846FFF7CFFD70B11B4E01234D
:100ECC00B3740027CDE9027702A8FFF7C5FD0546EC
:100EDC00A8B10020B07405B0F0BD009807F06BFB12
:100EEC00E8E790F8940205F085FE94F8940284F8F3
:100EFC004C5204F041FE202384F89432E2E7029B2A
:100F0C00002BE1D093F89422202ADDD018884FF6DC
:100F1C00FF739842DDD02946FFF764FD0446002894
:100F2C00DFD140F229113020FFF790F9840900201D
:100F3C00054B002201211A7219709A7442F2107238
:100F4C001A82FFF7AFBF00BF84090020014B187253
:100F5C00704700BF84090020014B1882704700BF06
:100F6C0084090020F0B5070CA7F5AA42144B543A9B
:100F7C00012A03EA90231FD927F4004042F6AA2243
:100F8C00801A18BF01200022162116461F2487EA5A
:100F9C00060562EA0505013510D0DD03ADB245EA60
:100FAC005606E503ADB2013945EA52024FEA530346
:100FBC004FEA5404EBD1F0BD0020E4E70020FAE73F
:100FCC00E0FF3F0010B501210020FFF70BFD0446A8
:100FDC0070B90121FFF7C8FC044620B940F21B315F
:100FEC003920FFF733F9034B93F9001007F08FFF0B
:100FFC00204610BD9809002008B507F03CFE00F013
:10100C0039FC00F0D3FA07F004FF00F0A1FD00F06A
:10101C004BFF00F0B5FD084B1B224FF4A4715A8016
:10102C009980064B06499A8000221960DA825A820E
:10103C001A835A7408BD00BF98090020C40D002003
:10104C0003021B00044B41F64C52C3E902221B2243
:10105C001A74FFF7D1BF00BFC40D00202DE9FF416A
:10106C00364DAB68044640F8303F07F0DAFA0646D6
:10107C0000F08CFA6687324E2B7C84F8383010F0F6
:10108C00200F33681DBFAA886988A4F85A101B2248
:10109C0008BFA4F85A20A4F85C205BB1012302A875
:1010AC008DF80830039408F01CF9336894F96C102F
:1010BC0020889847AE7CEF7CB5F8148041F64C53F1
:1010CC00A36116B900F068FA064657BB00F064FA43
:1010DC00074646B338B302A920468DF808608DF850
:1010EC000970ADF80A8007F006FE6B7801932B7837
:1010FC0000936A88AB8804F1140104F11000FFF727
:10110C00E3FC236913B940F28F5114E0636913B9FE
:10111C004FF4B2610FE0002004B0BDE8F08109206B
:10112C00FAE7002ED7D120880021FFF771FC0028A8
:10113C00F5D040F27E513920FFF788F8C40D00201D
:10114C004C000020F7B505460E4607F013FF0028AB
:10115C0073D0284607F0EFFF40B1B6F80130013BE1
:10116C007F2B03D91224204603B0F0BD284607F08C
:10117C00E6FF08B90C24F6E7284607F0A8FA002881
:10118C00F8D1284607F0B4FE04460028F2D12846D0
:10119C0001F01EFA0028E5D0B6F80170F17842F2A1
:1011AC00107328465F4307F0B3FF284607F0BBFFD8
:1011BC00014658B93A462846FFF7D2FD04460028A6
:1011CC00D1D041F616013920FFF740F821460DF138
:1011DC000600FFF791FB064668B3214600F040FC81
:1011EC00BDF8063033802846314607F0BEFF28464E
:1011FC0007F0ABFF98B9284607F0A9FF0146304627
:10120C00FFF72CFF04460028ADD13A46314628465C
:10121C00FFF7A6FD044620B141F63901D3E70121C1
:10122C00EDE7074B9B68002B9DD0024606F59971A4
:10123C003046984797E70D2495E7422493E700BF83
:10124C0098090020034B5A8802801B788370002079
:10125C00704700BFC40D0020F0B50778EF2F85B0A4
:10126C0004460D4603D91225284605B0F0BDB0F84A
:10127C000130ADF80C309DF80C30DA063FD49E06E8
:10128C0003F0030238D5002AEDD11807EBD46378AC
:10129C00190711D42179E278E07942EA01226179C7
:1012AC0042EA0142A17941EA0021207A41EA004157
:1012BC008A42D8D81F2AD6D9627A013A062AD2D8BD
:1012CC00A27A032ACFD813F0040102D1023A012AE0
:1012DC0003D8E27A012AC6D811B9A27C032AC2D853
:1012EC0013F01001227D19D0012ABCD1227E012AD3
:1012FC00B9D8B1B91125B7E7032AC6D1B3E713F0B2
:10130C00600FB0D103F00F0203F00703052BBED022
:10131C00931E012BBBD9002AA5D1B8E7022AE5D12F
:10132C00A1E7DA071FD46378227D03F0180108299E
:10133C001ED1022ADED11B0709D4E279A37943EA34
:10134C000223227A43EA0243B3F5804FD2D8BFB2CC
:10135C0001213846FFF746FB064678B107F0B7F98E
:10136C00B8B10C2580E700F0E1F80028DBD1C1E72B
:10137C00022AE0D0A27E002ADDD0BBE7012138464C
:10138C00FFF7F2FA064650B3164B93F9001007F02C
:10139C00BEFD304607F0C4FE21462870E07430468E
:1013AC0007F009FE637E0546002B3FF45DAF002875
:1013BC007FF45AAF316B02466846FFF733FC306B53
:1013CC002A46012106F049FF316B68460422FFF7DB
:1013DC0029FC306B2A46294606F03FFF44E70725D7
:1013EC0042E700BF9809002070B50579042D8AB03A
:1013FC00034658D84488B4F5804F54D82B48465DE2
:10140C00284400214279857AC07BADF8041042F063
:10141C00100242EA460242EA850242EAC00202F0A7
:10142C001F028DF80420BDF80420ADF80D201A8899
:10143C008DF80F208DF81240120A240A8DF8111025
:10144C008DF814108DF810208DF813405A7B8DF800
:10145C0015205A798DF816209A79D3F807008DF853
:10146C001720B3F80B209B7B8DF81E307F238DF853
:10147C001F3001238DF80C1006908DF82110ADF85B
:10148C001C208DF820308DF8223003A88DF8231005
:10149C008DF824108DF825108DF8261001A9FFF772
:1014AC00DBFE0AB070BD1220FBE700BF3C1B020044
:1014BC000278034672B1427862B142881A2A09D97D
:1014CC0082881A2A06D9044A006810609B88938087
:1014DC000020704712207047C40D0020024B026898
:1014EC009A600020704700BFC40D002008B501F0C1
:1014FC0067F8FFF71DFDBDE80840014801F04AB848
:10150C00A409002010B5064C064904F5027007F03A
:10151C0085FB04F503700449BDE8104007F07EBB61
:10152C00A40900205000002058000020014B93F823
:10153C0002017047A409002010B5074C00F068FBAD
:10154C00D4F8080207F062FBFFF77CFD00F03EFCCC
:10155C00012384F8143210BDA4090020014B93F828
:10156C0014027047A409002010B5074CD4F80C02E3
:10157C0007F04CFBD4F8100207F048FBFFF73CFDDA
:10158C00002384F8143210BDA4090020014BD3E9C8
:10159C000001704710000020034B1868C0F30020B6
:1015AC00400040F0010070471000002008B502F028
:1015BC002DFC084A002332F82310814205D302EB9C
:1015CC0083039B78044A137008BD01330C2BF2D1B2
:1015DC000023F7E7501B0200B90B0020054B9A8C37
:1015EC00824201BF002283F822204FF6FF729A84B8
:1015FC00704700BFBA0B002050B90A4A13460120AD
:10160C0003F8010B0868C2F801008A889A807047B9
:10161C00012805D1034B0A689A608A88D8719A818F
:10162C00704700BFE40B002048B90A4B187880B112
:10163C00D3F80120B3F805300A608B80704701287D
:10164C0006D1044BD87920B19A680A609B89F4E7DB
:10165C0000207047E40B002020B9054B187800F0EF
:10166C000100704701280ABF014B0020D879F6E72A
:10167C00E40B0020F7B500228B888DF80600ADF83E
:10168C00043008680C4B8DF80720019D1C7801462E
:10169C0003F5AC73D0B2844201D8082009E0D3E939
:1016AC000076AE4208BF8F4203F1080302F101023B
:1016BC00F0D103B0F0BD00BFF80B002030B5094BE2
:1016CC0001465C78002203F58173D0B2844201D8C4
:1016DC00082005E013F8015B8D4202F10102F4D100
:1016EC0030BD00BFF80B0020F0B5254D95F89841A2
:1016FC0089B0224605F29911684605F0BDFF2146D6
:10170C00684607F0D7FA0446B8B300EB4001C9B2FB
:10171C0002A8FEF7EDFE601E95F8A161C0B201248F
:10172C0095F8982105E0731CB3FBF2F102FB113321
:10173C00DEB206F120030DEB030111F8203C002B67
:10174C00F1D100EB400220326A4406EB46032B44F5
:10175C0012F8187C83F8A27112F8177C12F8162C68
:10176C0083F8A37183F8A42101F8204C0138AB193C
:10177C00C0B2FF2883F89941D2D109B0F0BD00BFA7
:10178C00F80B002070B5064688B00C46002A4FD0E6
:10179C002A4A92F8A131D01890F8991121B94FF436
:1017AC0080712820FEF752FD03EB430111440133F5
:1017BC0091F8A251E57091F8A35191F8A4116171BF
:1017CC000021257180F8991192F89811B3FBF1F072
:1017DC0001FB103382F8A13192F8C23123B91849B8
:1017EC0002F5DD7007F023FB657905F03F0545F048
:1017FC00400565710D220021684605F0B5FFE378C0
:10180C008DF80F3023798DF80E3004AA0423694625
:10181C0030468DF80D5005F099FC9DF81F30237063
:10182C009DF81E3063709DF81D30A37008B070BD1C
:10183C0003216018FEF75CFED6E700BFF80B002012
:10184C00F5160000044B5A78824286BF1B1893F899
:10185C004A010020704700BFF80B0020044B5A7857
:10186C00824286BF1B1893F842010020704700BFCC
:10187C00F80B0020064B00224FF461711A8083F89C
:10188C00C32183F8C421A3F8C61183F8C221704781
:10189C00F80B0020014B83F8C4017047F80B0020B3
:1018AC00014BB3F8C6017047F80B002030B50A4B5A
:1018BC005C7884420ED9184490F802012B3003EB6B
:1018CC00C004A5790D7053F830001060A388938084
:1018DC00012030BD0020FCE7F80B00200246074831
:1018EC0010B590F8C34124B1417821B1023001F018
:1018FC0073F8204610BD0C46FBE700BFF80B002028
:10190C002DE9F74F2F4C9A466378834280468946DF
:10191C0056D9231893F8425185F00105F9B193F883
:10192C004A31E3B945F002070135BAF1000F18D17D
:10193C00FA070AD5062101FB084104EB08105246B0
:10194C0001F585718230FFF71DFFBB0734D504EB21
:10195C000810524649460230FFF714FF2CE02F4680
:10196C00E3E794F8A1614FF0010B002DE0D0A3192F
:10197C00019393F8991199B90092DAB100F0F6F944
:10198C0006EB46012144019B81F8A2014FEA102C81
:10199C00009A81F8A3C1000C81F8A40183F899B1D5
:1019AC0094F898310136B6FBF3F103FB1166F6B2ED
:1019BC00013DDAE747F00407384603B0BDE8F08F85
:1019CC000027F9E7F80B0020074B5A78824209D917
:1019DC001A1892F842212AB9062202FB003000F5AF
:1019EC008570704700207047F80B0020064B5A7822
:1019FC00824281BF1B1893F83A01B0FA80F040097B
:101A0C0098BF0020704700BFF80B002030B50024B1
:101A1C00A0F85040B0F8544042F210754C43B4FB5F
:101A2C00F2F4A0F85440541E05FB0343B3FBF2F34D
:101A3C00A0F85230094BB3FBF2F30133A0F8583045
:101A4C00B0F84C3005FB0344436CB4FBF2F459433F
:101A5C008464B1FBF2F2426430BD00BF005A6202F2
:101A6C0070B504460D4659BB4FF4367205F07CFE3A
:101A7C00012384F89E30492384F8E930042384F848
:101A8C00EA306FF03B0384F8EB306F2384F8EC30D2
:101A9C006FF03F0384F8ED302B2384F8E830FE23FD
:101AAC0084F826317F2384F895301E4BC4F880309F
:101ABC00202384F8EE5084F8EF5084F8943270BDF3
:101ACC00012922D100238269A0F81E3280F813323A
:101ADC00154B1344B3FBF2F3C0F8C03040F6B833E7
:101AEC00A0F8C4301146438C7830FFF78FFF07F015
:101AFC004CFD30B1E069FFF735FA10B984F8FF51AD
:101B0C00DDE7002384F8FF31D9E70229D7D1B0F8FB
:101B1C00BA32D0F8B4228169BDE870407830FFF752
:101B2C0075BF00BF00E0FCFF7FC3C901074B93F9F1
:101B3C0000301844142804DC10F17F0F03DB40B292
:101B4C007047142070476FF07E007047C00D002066
:101B5C00024B00221A705A70704700BFC00D002053
:101B6C00054BFF221A70054A016811600179117149
:101B7C0000221A70704700BFC20D00201800002010
:101B8C0007B5064B186800901B798DF80430684631
:101B9C00FFF7E6FF03B05DF804FB00BF116702001E
:101BAC0010B5094C14220021204605F0DDFD12224F
:101BBC00002104F1140005F0D7FD01232373231D2C
:101BCC00C4E9003310BD00BFE00D002010B520B9F2
:101BDC0040F21B211020FEF739FB41600272EFF33B
:101BEC00108472B6094B1A1D0260596819B1097A32
:101BFC00012908BF1A601A681060186004B962B62F
:101C0C00BDE8104093F8260005F0CCBBE00D002099
:101C1C00024B83F82600FFF7C3BF00BFE00D002086
:101C2C00F7B54F4D4F4F06466B681B7A0C2B06D100
:101C3C00FB7D23B13B8B13B9002003B0F0BD2B69A6
:101C4C009BB11B7A8BB12C69002CF5D0237ADBB2BB
:101C5C0005222272023B0A2B73D8DFE803F01732FD
:101C6C00477272507272727265006C68237A012B23
:101C7C00E2D0EFF3108372B66A6812686A6003B937
:101C8C0062B6237A002BDAD02C61DFE7636823B9C4
:101C9C0040F2A1111020FEF7D9FA204631469847A0
:101CAC000420EFF3108372B6227A052AD1B201D048
:101CBC0000294FD1002222722A61002B46D162B634
:101CCC0044E0636813B94FF4D571E3E7314620461D
:101CDC0098470346C3F30723012BADF80400C0B2A9
:101CEC0032D0022BDDD100232B612FE0636813B9B6
:101CFC004FF4DA71CEE7204698470020D1E76368AD
:101D0C000BB9C621C6E70B2232701988A6F803104E
:101D1C00012200241869B2707271B471214606F068
:101D2C00B8F92C61042088E7606810B940F2DF1123
:101D3C00B0E70D4B31461B68984700232B610220FE
:101D4C007BE74FF4F471A5E70323237200283FF4DB
:101D5C006BAF72E7002B7FF467AF62B664E700BF2E
:101D6C00E00D0020C40D002060000020094AD2E9DB
:101D7C000003434083EAB01181EA43214FEAF34365
:101D8C005360054B116058434FEAF06000EB800044
:101D9C00704700BF080E0020BB79379E094AD2E974
:101DAC000203434083EAB01181EA43214FEAF34333
:101DBC00D360054B916058434FEAF06000EB800014
:101DCC00704700BF080E0020BB79379E38B50A4C0F
:101DDC0004F1080508212846FEF78AFBD4E9022302
:101DEC001343F7D0FFF7DAFF2060FFF7D7FF236824
:101DFC0060600343F6D038BD080E0020F0B5204ECD
:101E0C00054630780024147080B1431E7768DBB22D
:101E1C00181B01280BDC07EBC40057F83460406832
:101E2C00884208BFAE4212D114700120F0BD1819BF
:101E3C00461007EBC60E57F836C0DEF80460AC450A
:101E4C00C0F347008E412CBF03460446E0E7B54281
:101E5C0071EB000002D214700020E7E707EBC3001F
:101E6C0057F833404068884208BFAC4201D1137028
:101E7C00DBE7A542814128BF01331370ECE700BFBB
:101E8C00280E002010F0070208B503D0632148206B
:101E9C00FEF7DCF918B1034B197258601A70C800C0
:101EAC0008BD00BF280E0020014B00221A7070479D
:101EBC00280E0020014B187A704700BF280E002016
:101ECC002DE9D34306F0C0FF0DF1070207460E467D
:101EDC00FFF794FF98B9114C2278237A93420ED0D5
:101EEC00616813466FF0604E9DF80700984209D365
:101EFC0001EBC003C3E9007601322270012002B06D
:101F0C00BDE8D08303EB0E0001EBC000D0E90089E3
:101F1C00013BC0E90289DBB2E6E700BF280E0020D6
:101F2C0037B506F091FF0DF10702FFF767FF044686
:101F3C00A0B10C4A9DF8070013785568013BDBB241
:101F4C0013701A1AD2B2411CD200834238BF00223D
:101F5C0005EBC10105EBC00005F048FB204603B0C2
:101F6C0030BD00BF280E002038B5074D044600F1E7
:101F7C005101286806F0C3FE94F850102868BDE89B
:101F8C00384006F0CABE00BF340E0020F8B5044637
:101F9C000E466588407F15F00401134618BF04F106
:101FAC005F013246FFF7ACFCC20705460BD5012397
:101FBC0084F85030607FFFF707FD0368C4F8513098
:101FCC008388A4F85530AB070CD5094E012730682F
:101FDC0084F85E7004F15F0106F098FE30683946B3
:101FEC0006F0A4FE85F00400C0F38000F8BD00BF2D
:101FFC00340E002038B5C38D0E4D0133C385AB7C38
:10200C0004462BB101F09AFA00F018FD0023AB74D2
:10201C0000232B7194F871302BB101212046BDE8BF
:10202C00384006F00ABB637C13B1E28D9A42F4D2BD
:10203C000021F3E7340E002070B5294C2379012BD5
:10204C0007D02379022B04D040F6E2412D20FEF775
:10205C00FDF8A0B90125A37C1BB101F06FFA00F0CB
:10206C00EDFC002D3AD0E06906F0C9FA002830D01A
:10207C0001F0A0F8236ABDE870409B6818472168FE
:10208C00E26911F8095B02F15103E80992F850205A
:10209C0006F0F2FD0028DDD02068002106F06BFE72
:1020AC000028D7D02379E069012B05D02379022BA6
:1020BC0002D040F6BB41C9E72379226A03F1804381
:1020CC005269013B05F00F0152F823309847054641
:1020DC00C1E7E069BDE87040FFF78CBF70BD00BF81
:1020EC00340E002010B5134CA37C1BB101F026FA62
:1020FC0000F0A4FCE06906F082FA70B12379E06983
:10210C00012B0FD12379226A03F18043D268013B62
:10211C00BDE8104052F823301847E069BDE8104084
:10212C00FFF768BF2379022BECD040F6E7312D2066
:10213C00FEF78CF8340E002018B1084BD869FFF765
:10214C0059BF51B1054A1379116AD069096903F174
:10215C008043033B51F8233018477047340E00205E
:10216C002DE9F043032985B0054690467ED090F8C2
:10217C00703003F0FF02002B7DD1052904D16B8850
:10218C00DE0760D5002A5ED10127DFF8F09099F8C0
:10219C001260B6B106F0A5FD082888F8000014D02E
:1021AC0002AA0DF10701FFF781FB20B940F642713D
:1021BC002D20FEF74BF89DF8070002A906F050FE03
:1021CC00064698F80030082B08D1D9F8001011F801
:1021DC00030BC0F3801006F043FE0646D9F800103E
:1021EC0095F8572011F8030B05F15803C0F3801034
:1021FC0006F042FDD9F80010044611F8030BC0F3A9
:10220C00801006F064FD8146FFF7F0FB014640B1FB
:10221C00B9F1080F1BD04846FFF714FB80F0010101
:10222C00C9B298F80000082815D094B96B7F1C1A15
:10223C00604260416B885A0706D421B996B9EB7C91
:10224C0093B1BB4210D0002005B0BDE8F083002153
:10225C00E7E70120EEE714B181F00104E4B204F0E9
:10226C000100E7E73046EFE70120EDE743889B07E5
:10227C00E9D5022789E70529E5D180E7340E00204E
:10228C00032973B5044604D0052953D0012002B0AC
:10229C0070BD08230DF107028DF80730FFF760FFC2
:1022AC000028F3D0237C284D0BB39DF8070094F83D
:1022BC00BE30E3B9237884F8BF30082804F1C1029A
:1022CC0029D004F1C001FFF7F1FA20B940F6BF7133
:1022DC002D20FDF7BBFF94F8C03043F0020384F8C7
:1022EC00C0301A49022204F1B60006F094FD2B68A6
:1022FC00062204265A701E702046FFF735FE94F80D
:10230C004020E16B286806F027FD28682E7101F04B
:10231C00D3F80020BBE72868034613F8031BC1F36E
:10232C00801184F8C010D0F80310C4F8C1109B8839
:10233C009380D6E7064B1B6823B1984780F00100C9
:10234C00C0B2A4E71846A2E7340E0020818E00002C
:10235C00640000202DE9F04104460E4619B300F14B
:10236C002805284606F08DFFA0B963881A072ED5DC
:10237C00284606F09DFF0746284606F082FF381ACD
:10238C00C0B206F0A5FF544A9368034428469360F4
:10239C0006F053FF284606F055FF00F0C9FE2179E0
:1023AC00252000F0DBFD4C4D94F85E2028680023BE
:1023BC00037043706388103B0D2B57D8DFE803F094
:1023CC0052564E0C56395656565656565639204677
:1023DC00BDE8F041FFF70EBE0623437020230370C7
:1023EC002046FFF7C1FD638823F008039BB2152B31
:1023FC0005D094F83820616B286806F09EFC28689C
:10240C0001F05AF803232B7136B16388102B32D1AB
:10241C002179002000F092FE6388103B0D2B56D8DA
:10242C00DFE803F058554F4F554F555555555555F9
:10243C00554F0C2343702123037042B104F15F010B
:10244C0006F064FC0121286806F070FCC8E704F172
:10245C00580106F05BFC94F85710F4E70623037060
:10246C004370BDE7022303700623F9E740F2556180
:10247C002D20FDF7EBFE04F128084046EF6806F02E
:10248C0017FF0646404606F0FCFE013E301A6188F6
:10249C002822C0B200F02AFA63881B07074406D52D
:1024AC00AB681F4406F011FF3844C4F8D8002279F9
:1024BC003946002000F076FF0028ADD140F6575188
:1024CC00D6E721790120BDE8F04101F045B840F68E
:1024DC006B51CDE7BDE8F081340E002038B5438850
:1024EC00102B044604D1BDE838400121FFF732BF60
:1024FC000B4DAB7C23B100F087FA402001F012F8B1
:10250C00286800F0D9FF608810F0040002D121790E
:10251C0001F022F8002000F0E1FF01232B7138BDFF
:10252C00340E0020024B0121D869FFF713BF00BF06
:10253C00340E002010B50B4B1A798AB11A79DC696C
:10254C00012A02D01A79022A05D19B7C1BB100F01A
:10255C00F5FF00F073FA2046BDE81040FFF74ABDC6
:10256C0010BD00BF340E002010B50948037903F0EC
:10257C00FF0453B918222146043005F0F5F800F099
:10258C00DDFF00F05BFA204610BD0C24FBE700BF1A
:10259C00340E002010B5094C002323712060FFF786
:1025AC00E3FF20B140F225312D20FDF74FFE236AC9
:1025BC0013B94FF44A71F7E710BD00BF340E002079
:1025CC00014B024A1A627047340E0020A02800000A
:1025DC002DE9F041067DB31EDBB2012B04468CBF06
:1025EC004FF000084FF001087EB3B71E18BF01274B
:1025FC00012B36D800F1580190F8570006F067FB14
:10260C00082805462DD0FFF729F958BB657784F8C3
:10261C001C8084F85070FFF743F9054606F0ECFE79
:10262C00174BA5FB03351B1845EB01050022C4E92C
:10263C00123584F85E2011462046FFF7A7FC70B9CE
:10264C0040F2C2412D20FDF701FE3746082504F16A
:10265C0051010020FEF7E8FF0028D7D10020BDE88B
:10266C00F0810825022EF2D0E37E002BF6D0D4F8B0
:10267C001530C4F85130B4F81930A4F85530C5E70A
:10268C0040420F002DE9F041634E337986B0044689
:10269C0003F0FF0513B90378FF2B04D140F6DE11CC
:1026AC002D20FDF7D3FD5D4B02935D4B03935D4BEA
:1026BC000493336A75715B6880F8715002A80593B6
:1026CC003582B560B57100F0EFFE00F073FC00F0E0
:1026DC0035FF00F0B3F9544800F004FD04F128076D
:1026EC00524800F0DBFE384606F0A7FD384606F0EF
:1026FC00A9FD00F01DFD2179252000F02FFC94F997
:10270C00120000F0E9FC2846217900F0E3FD0546B3
:10271C00F06030B92046FFF76DFC284606B0BDE8E6
:10272C00F081012104F1680006F09CFA04F13401F7
:10273C00206B05F0AFFD04F13C010746206B05F062
:10274C00D0FD05461FB194F82430002B3ED10DB1BD
:10275C0094F82550237F13B963885B070AD5D4E915
:10276C0012126FF000439A4208BFB1F1FF3F2FD114
:10277C00002D35D130680330FFF7B0F86588B074A0
:10278C0015F0010546D00023276ACDE90033FF235D
:10279C00F37407F10A086846FEF75EF90028BCD10D
:1027AC00009CA742F7D07A7A607A434604F10A017A
:1027BC0006F062FA0028EED0A378F374D4F8030084
:1027CC0070611B4BB4F807209A80A6E70125C1E77E
:1027DC0006F012FED4E91223904271EB0303C7D327
:1027EC00012205EA02012046FFF7D0FB68B1FFF792
:1027FC0057F8054606F000FE0E4BA5FB03351B18DB
:10280C0045EB0105C4E91235B4E7002DB2D040F612
:10281C001F2145E7012580E7340E0020F120000040
:10282C004520000045210000D6BE898E5555550027
:10283C00480E002040420F00024BD8611B6A1B68F7
:10284C00184700BF340E002043881B0710B5044600
:10285C0012D5036A0A493C2280F87B201B88A0F819
:10286C007C30FF2380F899304FF6FF73A0F89A3034
:10287C000222723006F0CFFA012384F8713010BDB9
:10288C00998E00008D220000E9240000F98E0000D2
:10289C00F38E00005F9100004125000031250000FF
:1028AC009C28000094280000902800000138022881
:1028BC0008B503D9CA212F20FDF7C8FC13290A4BF0
:1028CC0005D811290CD8102907D0D821F3E71529E0
:1028DC00FBD103EB4003D88801E033F8100008BDAE
:1028EC0003EB40039889FAE7BC1B020008B5431EB2
:1028FC00DBB2012B05D91D291ED0EE212F20FDF7AF
:10290C00A5FC10390D291BD8DFE801F0071A1111AD
:10291C001A0C1A1A1A1A1A1A1A160B4A02EB430331
:10292C00588A08BD084A02EB4303D88AF9E7064ADD
:10293C0002EB4303588BF4E740F25A335843F0E769
:10294C004FF48171DAE700BFBC1B020038B50446B6
:10295C00084694F8A03213B10C25284638BD94F8DB
:10296C009730162BF8D194F8C43203F0FF05002BE6
:10297C00F2D199B10A4B5968D1F83032C4F81C31F4
:10298C0001F58472052301F5087104F0DFFB0123C6
:10299C0084F8A032204606F09FFCDEE70223F7E71E
:1029AC00580E0020064BD3F8000138B1D3F80401BF
:1029BC0020B1D3F80801B0FA80F04009704700BF8D
:1029CC0000F00040034B00221A705A7010229A70CB
:1029DC00704700BF720E002070B5064602201446E8
:1029EC000D4600F0B5F8064B01221A70054B033C5E
:1029FC00C3F81045C3F80865C3F8045570BD00BF93
:102A0C00720E002000F0004008B5022000F0A0F883
:102A1C00084B01221A70084B0022C3F80021C3F89E
:102A2C000421C3F8082103F580334FF40002C3F8E6
:102A3C00042508BD720E002000F000400D4A08B5B8
:102A4C0013787BB10C4B4FF40001C3F80815FFF75A
:102A5C00A9FF60B101235370084BD3F80034937075
:102A6C0000231370BDE80840002000F071B85070CE
:102A7C001023F4E7720E002000F0014000F000403B
:102A8C000A4B1A786AB10A4BD3F800215AB1D3F821
:102A9C00040120B1D3F80801B0FA80F04009C0B2AB
:102AAC007047587870470220704700BF720E0020A4
:102ABC0000F0004008B5074B1A783AB1FFF772FFE7
:102ACC0030B1054BD3F80004C0B208BD9878FCE7D0
:102ADC001020FAE7720E002000F00040024B00229A
:102AEC001A705A709A707047750E0020064B1A783F
:102AFC002AB1064A0649C2F8081500221A700022AB
:102B0C005A709A70704700BF750E002000F001409B
:102B1C000000020208B50B4B4FF40042C3F88020B2
:102B2C00BFF34F8FBFF36F8F074B0022C3F8002505
:102B3C00C3F80025FFF7DAFF044B4FF40002C3F88B
:102B4C00082508BD00E100E000F0004000F0014065
:102B5C0038B5144C0023C4F80035C4F800350546CC
:102B6C00FFF7C4FF104B4FF40002012DC3F80825EA
:102B7C0003D0022D08D085B938BD0223C4F8003526
:102B8C000A4BC4F81435F7E70321C4F800150749BC
:102B9C00C4F81415C3F80425EEE782213D20FDF797
:102BAC0055FB00BF00F0004000F001407A0E002001
:102BBC00084B0022C3F80021C3F80C21C3F81021E4
:102BCC00C3F80421C3F81421C3F81821C3F8082151
:102BDC00704700BF00100040024B00221A809A7010
:102BEC001A717047880F002038B5134B93F8315089
:102BFC000246084625B940F651013E20FDF726FB5A
:102C0C005AB9012DDC6A93F8301003D100F01AFE8A
:102C1C00204438BD06F08DFBFAE7012A0AD1012DBC
:102C2C00DC6A93F8301002D100F0FEFDF0E706F0FC
:102C3C008BFBEDE70020ECE7880F002008B5094B73
:102C4C00012883F82000084B06D0022808D040F653
:102C5C00B9513E20FDF7FAFA0322C3F8102508BD3E
:102C6C000422FAE7880F00200010004007B50B4A39
:102C7C0001AB92F9212000F029FE9DF9040000F02F
:102C8C00CBFD9DF8050000F09BFE20B140F2CD512C
:102C9C003E20FDF7DBFA03B05DF804FB880F002043
:102CAC0008B503460F4863B92831C1600E4900F0DE
:102CBC006FFE0130012814D940F224713E20FDF73B
:102CCC00C5FA012B0AD12931C160074900F066FE13
:102CDC000130012805D940F22E71EFE740F2327134
:102CEC00ECE708BD20000020DC1B020008B5134BEC
:102CFC0093F83D30D9071FD59A0711D5104BD3F84F
:102D0C00002242F00102C3F80022D3F8503503F040
:102D1C00F603022B10D140F2FC513E20FDF796FA3F
:102D2C005B0709D5074B084AC3F8AC2506F066FBD0
:102D3C0010B140F20361F0E708BD00BF880F00201E
:102D4C000010004000F0014008100040084B1A78B9
:102D5C003AB993F83D2042F0020283F83D20FFF788
:102D6C00C5BF012AFBD193F83D2042F00402F4E7E1
:102D7C00880F002008B50C4B9B78012B09D100F073
:102D8C0013FE013001280ED940F6A2013E20FDF7BA
:102D9C005DFA022B07D100F00DFE0130012802D99B
:102DAC0040F6A801F2E708BD880F0020054B03444C
:102DBC0000F07F001A7E044BC3F80825C3F85405B5
:102DCC00704700BFDC1B02000010004038B50D46F8
:102DDC000446FFF733FF2846FFF7E8FF2946204655
:102DEC00FFF744FF06F0D1FB90B10A494FF0805336
:102DFC00D1F88825D3F82033022C0CBFC3F306631B
:102E0C00C3F3062322F4FE4242EA0323C1F88835B9
:102E1C0038BD00BF0010004010B50C46FFF70EFF88
:102E2C002046FFF7C3FF0E4B5A78012A03D1D878FE
:102E3C002146FFF71BFF0B4CD4F8003243F4887388
:102E4C00C4F8003206F0A1FB40B906F0ADFB28B97E
:102E5C00D4F8683543F4C023C4F8683510BD00BFFE
:102E6C00880F00200010004010B550220021194896
:102E7C0004F07AFCFFF7B0FE06F042FB60B12422AE
:102E8C001548FF2104F070FC4FF080430022C3F87A
:102E9C00082EC3F8102E10BD06F03BFB0028EED117
:102EAC0006F040FB0028EAD106F05AFB08B140229C
:102EBC00E6E706F04CFB04460028F8D10648382219
:102ECC00FF2104F051FC4FF08043C3F8084EC3F8C7
:102EDC00104EE0E7880F0020000E0040024B034428
:102EEC00187E00F516607047DC1B0200084A094B7F
:102EFC0092F83010906A03EB81031A6CDB6C801A29
:102F0C0003F2DB534FF47A72B3FBF2F3C01A70473F
:102F1C00880F0020DC1B020008B50E4890F830101A
:102F2C00012906D0022912D040F2AA213E20FDF739
:102F3C008DF940F6B833084A806A02EB8102126CB4
:102F4C00801A4FF47A72B3FBF2F3184408BD4FF4B5
:102F5C00FA63F0E7880F0020DC1B020008B5134B66
:102F6C00012983F83C0006D002291BD040F20B311A
:102F7C003E20FDF76BF900230D4A43F4801340F01B
:102F8C00007043F4847340F44030C2F81435C2F836
:102F9C001805D2F8503503F0F703032B05D140F296
:102FAC002331E5E74FF08073E6E708BD880F00207A
:102FBC0000100040424B022270B5C3F88020BFF3D2
:102FCC004F8FBFF36F8F3F4C0023C4F8FC3F01239E
:102FDC00C4F8FC3F06F0E8FA28B1D4F83C3743F4C7
:102FEC008063C4F83C3706F0A6FA58B1D4F83C37E5
:102FFC0023F0004323F0FF0343F0004343F0960318
:10300C00C4F83C3706F0C1FA2E4C38B1D4F840372E
:10301C0023F47F4343F4B053C4F840372A4BC4F82D
:10302C00783700F0DDFC38B14FF08053D3F83033F3
:10303C00591C18BFC4F84C374FF01023214C1B6E91
:10304C005A1C09D0D4F88C251B0403F47F0322F4FA
:10305C007F021343C4F88C3540F20313C4F83435A3
:10306C001A4D40F25B63C4F838350123C4F830358F
:10307C0085F820300323C4F8103540F20123C4F83E
:10308C0050360226124BC4F80062187C00F0AEFCDD
:10309C00104B4FF04062C3F8042500232B86EB62E3
:1030AC0085F83D30064B1022C3F88061C4F8042328
:1030BC001E602B6D13B1BDE87040184770BD00BF8A
:1030CC0000E100E0001000402C000089880F002077
:1030DC002000002000F00140014B83F821007047D4
:1030EC00880F0020034B020E0002C3F82425C3F8FE
:1030FC001C0570470010004038B5044600680A4DA6
:10310C00FFF7F0FF094B6268C3F83C25237A85F87A
:10311C002230617AA07AFFF721FF607AFFF78EFDEB
:10312C00E37A85F8213038BD880F0020001000406C
:10313C00014B83F822007047880F002070B51A4DA0
:10314C0095F83D30DA070446084604D440F257712E
:10315C003E20FDF77BF8154ED6F8002243F0020313
:10316C0042F00102C6F8002285F83D3084B995F88A
:10317C002210FFF72BFE0E4A0123AB70D364336091
:10318C000B4B2046D3F84C15BDE87040FFF788BDBB
:10319C00012CF5D195F82210FFF73EFE0223AB70FF
:1031AC00034BDC647460EBE7880F002000100040D8
:1031BC0000800040214B102213B5D3F80443C3F810
:1031CC0008230222C3F800221D4A002182F83D1078
:1031DC001C4A4FF46020C2F80805D3F85025D2B22F
:1031EC0004F01004DAB1FF228DF807200122C3F895
:1031FC0010111A619DF8072012B1D3F810213AB1C1
:10320C009DF807305BB940F691013E20FDF71EF8A2
:10321C009DF80720013AD2B28DF80720EAE7FFF7B4
:10322C00A9FD06490023C1F81031FFF7D5FC14B1F4
:10323C001023C1F8043302B010BD00BF00100040D1
:10324C00880F002000F0014038B51E4D0024C5F851
:10325C004845C5F84445C5F84045C5F84C45FFF709
:10326C00A9FF00F08FFB0130012804D940F2415135
:10327C003E20FCF7EBFF144B14495A6B42F04462AE
:10328C00C1F80825C3E90A445C631C76104BC5F8E9
:10329C0048450222C5F84445C5F84045C5F84C459B
:1032AC00C5F84841C5F84441C5F84041C5F84C4102
:1032BC00C3F88020BFF34F8FBFF36F8FC3F880210B
:1032CC0038BD00BF00800040880F002000F0014096
:1032DC0000E100E070B52F4C94F83D3043F0020350
:1032EC000E4684F83D30054678BB94F822103046E3
:1032FC00FFF76CFD0123A37023782749012B01BF35
:10330C00264AD2F8003243F00803C2F80032636B4D
:10331C0001EB460143F480136363214BB1F8584031
:10332C004FF48012C3F8042504F5FA744FF47A7341
:10333C00B4FBF3F4FFF70AFD06F060F8014620B386
:10334C00FFF738FF0024204670BD01281BD194F8EC
:10335C0022103046FFF760FD0223A3702378012B67
:10336C0001BF0E4AD2F8003243F00403C2F8003217
:10337C00636B43F400136363094B4FF40012C3F8FF
:10338C0004252924D6E70024D4E72846FFF788FC37
:10339C00D9E700BF880F0020DC1B020000100040A2
:1033AC0000F001402DE9F047354C0E461546074616
:1033BC00002848D194F822101046FFF707FD217819
:1033CC0001239942A37010D02E4A02EB4502B2F8A9
:1033DC0058304FF47A7203F5FA73B3FBF2F3F61A22
:1033EC0019B9294B294AC3F8AC25DFF8A490DFF8AA
:1033FC009880284BC9F84065C8F8A835234B102293
:10340C00C3F80423636B4FF4002A43F40023636373
:10341C000125C8F804A5FFF799FCC9F84C50D9F858
:10342C004C359E4226D80025C9F84055C8F8AC55F5
:10343C00636B23F400236363C8F808A5FFF7BAFE97
:10344C002846BDE8F08701280FD194F822101046C9
:10345C00FFF7E2FC0223A3702378012BC5D0293E91
:10346C00002BC2D1084B0C4ABDE74FF401613E2042
:10347C00FCF7ECFE31463846FFF712FCE0E700BFE4
:10348C00880F0020DC1B020000F0014000100040FF
:10349C00008000404081004004100040014BC3F804
:1034AC003C0570470010004010B50FC8014C84E873
:1034BC000F0010BDDC0F0020064BC3F80405064BB3
:1034CC0093F83D20986342F0010283F83D20FFF70A
:1034DC000DBC00BF00100040880F002010B50F4C31
:1034EC00034694F8310094F8301002220128227619
:1034FC004FF0960094F820200CD100F0B1F9084A56
:10350C00E0610023C2F84431E36AE1690B44C2F87C
:10351C00443510BD00F0BEF9F1E700BF880F002064
:10352C0000800040044BC3F86005D3F8002242F041
:10353C004002C3F80022704700100040054BD3F83E
:10354C00002222F04002C3F800220022C3F86025BA
:10355C00704700BF0010004008B50D4B0246D970F3
:10356C0008460021197082B901225A709A78022AF1
:10357C000DD193F82210FFF779FB064AD2F80032EE
:10358C0043F48873C2F8003201E002225A7008BD7D
:10359C00880F0020001000402DE9F843924D934C09
:1035AC000123EB64D5F84C7594F83C8003F0F6F9E4
:1035BC000026C4E91006A764FFF7DCFB8C4B626B9A
:1035CC00C3F808258B4A6663D2F8003223F48E7355
:1035DC0023F00103C2F80032237E84F83D6023B14E
:1035EC00D5F844319B1B18BF0123A578012D50D170
:1035FC00D2F80C31002B0CBF0025082515F00B0F51
:10360C0006D17C4BD3F8103113B145F01005EDB257
:10361C00FFF7CEFA05F01803102B05D1A378012B78
:10362C0004BF45F02005EDB26F4B6678D3F8482502
:10363C00E262D3F8443594F82020A362A37884F88E
:10364C00302084F83130002E3AD1FFF7C5FA2676B7
:10365C00EF077ED5636D9847EB0601D5236E98472F
:10366C00A378022B13D1237E8BB1022B5E4A40F040
:10367C00AD80E36AE1690B44C2F84435636B43F4F3
:10368C00800363635A4B4FF48002C3F80425BDE8F2
:10369C00F883022D12D1574AD2F80C11D2F800241B
:1036AC00002908BF0025D2075CBF45F00405EDB228
:1036BC00002BA3D045F00105EDB29FE700259DE757
:1036CC0015F0110F1BD1237994F80090013E18BF0F
:1036DC000126012B17D0022B2AD073BB9621304622
:1036EC00FFF782FA0146FFF777FAB9F1010F29D1FA
:1036FC003B378F4224D93F4B01261E61A8E7FFF7C9
:10370C0059FD0026A4E73C48FFF7F6FC94F831304D
:10371C0023B940F24E713E20FCF798FD012B04D1E9
:10372C00FFF7FAFB61690144DDE7FFF7DFFBF9E71F
:10373C003148FFF7E1FC6169D5E740F6BF21EAE7C4
:10374C0084F80090E2783046FFF72CFE0028D2D0A7
:10375C00D7E7A8072FD505F018FFE8B905F024FF27
:10376C00D0B9244BD3F85034D90115D51A0705D04C
:10377C0013F0F00F02D013F4706F0DD11D4AC3F388
:10378C0004410129D2F8542406D1012A04D0C3F3F0
:10379C004253022B7FF65EAFA36B5B78434584BF2D
:1037AC0045F00405EDB285F00400A36D3146C0F37D
:1037BC008000984750E715F0280F3FF44DAF85F087
:1037CC002001E36DC1F340113046F2E7012B02D02A
:1037DC0040F69B419FE7E369E16A8B423FF64CAFB1
:1037EC0040F69C4197E700BF00800040880F002006
:1037FC0000F0014000100040900F0020024B03EB42
:10380C008003186C704700BFDC1B0200014B53F89F
:10381C0020007047281C0200024BC0B2C3F80C05F4
:10382C00704700BF00100040054B33F811300238D0
:10383C004FF47A7203F2E733B3FBF2F31844704798
:10384C00481C0200054B33F811304FF47A7203F523
:10385C007A73B3FBF2F31844704700BF481C0200A4
:10386C0038B51D460A4B33F8111003EB82030535AE
:10387C009C6821444FF47A7301F6B73103FB0014B2
:10388C001046B4FBF3F4FFF7B9FF2C44204438BDC9
:10389C00481C020070B5064608461546FFF7B6FFF1
:1038AC00094A02EB850293684FF47A7203F6B73338
:1038BC0002FB06331C1A2846B4FBF2F4FFF79EFFFA
:1038CC000530204470BD00BF481C02002DE9F74FA5
:1038DC00284C074698460D46164600F0A9F8237862
:1038EC00BB42814611D16378AB420ED194F90230C0
:1038FC00B3420AD1E378834207D1A388A8F80030F9
:10390C0094F9060003B0BDE8F08F7B1E072B13D88B
:10391C00DFE803F0170412191212121001200DF136
:10392C0007033246294600F089F8824668B13D21EA
:10393C00752004E00220F2E740F2F2310620FCF799
:10394C0085FC0020EBE70320E9E728469DF907B04A
:10395C00FFF7C4FA534602464146584600F036F883
:10396C00B8F80030A071A38027706570A67084F839
:10397C000390C5E738000020014B1B681B681847F3
:10398C0068000020014B1B685B681847680000202A
:10399C00014B1B68DB68184768000020014B1B6853
:1039AC001B69184768000020014B1B685B691847AE
:1039BC0068000020014B1B689B69184768000020B9
:1039CC00014B1B689B6A18476800002010B4034C1D
:1039DC002468A468A44610BC604700BF680000209F
:1039EC00014B1878704700BF3416002000220F4995
:1039FC0038B50446134644FA02F0C007D5B248BFA6
:103A0C00581C02F1010244BFCD54C3B2042AF2D1B6
:103A1C00064DC3F10402042BD2B24FF0FF0188BF54
:103A2C000022E81803F0A0FE2C7138BD40160020CF
:103A3C00014B187D704700BFF00F0020042810B513
:103A4C0011D883B104280CBF10242824A1420AD217
:103A5C00064C54F8200018B141568A42A8BF0A46B9
:103A6C001A70002010BD6FF01500FBE7F00F00205E
:103A7C0030B50346114890F91C209A4219DD90F993
:103A8C0024209A4217DA9A1A846AA05C0C4A1556BA
:103A9C009D420DD00E32002918BF01309442C0B2A5
:103AAC0006D129B1013BDBB2012B01D80130C0B2E8
:103ABC0030BD0D20FCE70020FAE700BFF00F00201E
:103ACC005C1C020008B5054B93F91C30984203DAD4
:103ADC00FFF7CEFF024B1B56184608BDF00F002017
:103AEC005C1C020010B51C4C94F82C3073B90123EB
:103AFC0084F82C3005F016FD48B1184BA362D8237E
:103B0C00236284F824300823A361237710BD05F0C9
:103B1C001EFD0028F1D105F023FD0028EDD105F0A4
:103B2C00E6FC38B10E4BA362D823236284F8243010
:103B3C000423E9E705F0E4FC0028F3D105F0E9FCE7
:103B4C000028EFD105F0F7FC0028EBD140F2BB11B7
:103B5C00742003F047FA00BFF00F0020971C0200FE
:103B6C006A1C0200014B1879704700BF241000201A
:103B7C00054B1A79824283BF1B6800EB400003EBB4
:103B8C0000100020704700BF2410002043F609529B
:103B9C00C0F3080302FB03F3400A03F5807302FB36
:103BAC0000F000EB5320704743F6095CC0F30802A9
:103BBC0010B50CFB02F2C0F34E24030E43EA0123B2
:103BCC000CFB04F0090E02F580724FEA411C00EB6D
:103BDC0052205A01B2EB030E4CEAD36C6CEB01048D
:103BEC004FEA841C4FEA8E12B2EB0E024CEA9E6C2A
:103BFC006CEB040C4FEACC0C4CEA527CD200D31880
:103C0C0041EB0C01DA03C903801841EA534141F13D
:103C1C00000110BD430B48F2376C0CFB03F34FEA69
:103C2C00134C00B5104B43F6095E0EFB1C0000FB59
:103C3C0003F35B0D0EFB03FE03EB4C230EF5745CE0
:103C4C000CF1080CB0EB5C2F08D80EF5807EA0EBC5
:103C5C005E20C0B20B6010705DF804FB01330020D5
:103C6C000B6010705DF804FB6F0C0100F8B5274D6C
:103C7C00A94246D8264E274F450F45EAC105A6FB5B
:103C8C000514C0F34F31A40B01EB054107FB1411D4
:103C9C00A6FB0151890B41EA04411F4C04FB1104A2
:103CAC0048F2376C600B0CFB00F04FEA104C43F6FB
:103CBC00095E1A480EFB1C4505FB00F0400D0EFB7F
:103CCC0000FE00EB4C200EF5745C0CF1080CB5EB0F
:103CDC005C2F12D80EF5807EA5EB5E2E5FFA8EFE61
:103CEC00069D85F800E00D0628184FEA112141F1D8
:103CFC000001186059601460F8BD01304FF0000EDF
:103D0C00EEE796219B2003F06DF900BFFF7F841E28
:103D1C0083DE1B43000024F40080841E6F0C010022
:103D2C00420B48F2376303FB02F2120C43F6095CB8
:103D3C00074B0CFB120101FB0333013B5B0D0CFB2E
:103D4C0003FC5002B1EB5C2F88BF01301844704764
:103D5C006F0C010070B5012504460E4685407AB102
:103D6C00002000F01BFDE30003F1804303F5F83362
:103D7C00C3F81005C3F81465034BC3F8045570BDA4
:103D8C00014BC3F80855FAE700F0014010B5094A99
:103D9C0092F80034202B03D15021022003F022F999
:103DAC00590102EB4313BDE81040525858680421E6
:103DBC00104700BF3010002008B501B3F0B14FF030
:103DCC00FF331A46E0FB01320E498A4203D97121B6
:103DDC006D2003F007F9180D40EA0230C3F30F13FE
:103DEC004FF22441B0FBF1F203EB0040064B03FB16
:103DFC001200B0FBF1F040EA0240013008BD084669
:103E0C00FCE700BF3F420F00000024F4014B9888F0
:103E1C00704700BF6C140020014B5888704700BFDE
:103E2C006C14002010B5EFF3108472B6064A937927
:103E3C000133DBB293719379012B01D105F0FAFABE
:103E4C0004B962B610BD00BF6C14002070B50C4CE8
:103E5C00267866B90125A0602570FFF7E3FF00F016
:103E6C004BFA30B94FF080432573C3F8045300204C
:103E7C0070BDA368002BFAD09847A660F7E700BF87
:103E8C006C14002038B5FFF7CDFF00F035FA094C63
:103E9C004FF0804540B105F0BAFA01232B610423A1
:103EAC0063730023A37338BD032363730123C5F825
:103EBC000433F6E76C14002010B5EFF3108472B6DF
:103ECC000A4B9A7922B94FF496716D2003F08AF857
:103EDC009A79013AD2B29A719A791AB9DB7B0BB9F9
:103EEC0000F0F8F904B962B610BD00BF6C140020E4
:103EFC0008B5054B1A7822B100221A731A70FFF715
:103F0C00DBFF002008BD00BF6C14002073B51B4DF7
:103F1C002B7F63B9286A00F0030005F0A5FA30B1D5
:103F2C00EFF3108372B66A7B1AB103B962B602B0B2
:103F3C0070BD01226A7303B962B64FF08043082248
:103F4C00C3F808234FF42073ADF80630BDF80640D3
:103F5C00A4B2631E9BB2ADF80630002CF6D14FF024
:103F6C0080460748C6F80C4105F0A3FA85F82540B1
:103F7C00FFF788FF0823C6F80433D8E76C14002039
:103F8C00901400202DE9F041384C94F82630002B89
:103F9C0069D04FF08043D3F80071D3F8046157B166
:103FAC000122C3F80823237B2BB1A36800252573BA
:103FBC000BB19847A5604EB14FF080430022C3F877
:103FCC0004210222C3F80823FFF7A0FF4FF080461C
:103FDC002748D6F80C8194F82550EDB205F06DFA0F
:103FEC0020B140F2C5116D2002F0FCFF47B1637B9C
:103FFC00032B05D10423637305F009FA0123336104
:10400C00B8F1000F16D04FF080430022C3F80C21FA
:10401C00637B042B02D040F2D711E4E705F0A9FA38
:10402C00C0B14FF080430022C3F8342C02236373D9
:10403C00FFF742FF4DB1002384F82530637B022B40
:10404C0001D1FFF71FFFFFF737FFBDE8F04108482C
:10405C0005F042BA05F06FFA0028E2D105F080FABB
:10406C000028DED1E2E7BDE8F08100BF6C1400202F
:10407C009014002010B5044C206A00F0030005F0E9
:10408C00F3F90028F8D010BD6C140020F8B50546E3
:10409C0050B10278042A07D8437842B9013B1F2B50
:1040AC0002D88378212B07D96FF0150076E0002B0E
:1040BC00FAD18378002BF7D1814B0127C3F880709C
:1040CC00BFF34F8FBFF36F8F4FF08046C3F88071F3
:1040DC007C4C4FF0FF33C6F808330023C6F8003190
:1040EC00C6F80431C6F80C31A371AB88A38005F077
:1040FC00A6F908B12770A771D6F80C24D6F80C34A1
:10410C00D20303D5DF0701D500F0F0F840F2F553E8
:10411C0063802B78A9782377002222622174A27302
:10412C00042B4ED8DFE803F005033B494B00012379
:10413C00236205F08BF900284ED005F08EF9236A26
:10414C0003F00303984247D1AB79002B3ED1FFF724
:10415C0091FF237C6BB12B785BB900F0CDF8054651
:10416C0003F0B6F86FF00043002D00F0A580C4E911
:10417C0005034FF08043D3F80C24D3F80C34D2034E
:10418C0003D5DB0701D500F0B1F84D4A012300201F
:10419C00607384F82630C2F880311360F8BDFFF7E5
:1041AC0041FE4FF08043D3F80C14D3F80C24CE030B
:1041BC00F9D5D007F7D50223BAE7434BB8E7434B01
:1041CC00B6E740F216316D2002F00CFF4FF0804341
:1041DC000222C3F80423BCE74FF080430122DA60CB
:1041EC000022C3F80421226AC3F8182505F07FF9D0
:1041FC0010B34FF080534FF08042D3F84432C3F3E6
:10420C004233C2F83C3505F072F910B34FF08043DD
:10421C000122C3F84C254FF0804301229A60022200
:10422C00C3F80423AA79002A93D1D3F80423910765
:10423C001CD440F2CD21C6E705F062F90028D8D194
:10424C0005F067F90028D4D105F075F90028D0D114
:10425C00D9E705F055F90028D8D105F05AF900280E
:10426C00D4D105F068F90028D0D1D4E7184A1669E2
:10427C00116941F010011161D3F8043106F01006F8
:10428C000BB905F0A2F94FF08047D7F8043183B190
:10429C00FFF7F0FE26B90E4A136923F010031361E1
:1042AC004FF080430222C3F808230022C3F80421F4
:1042BC004FE705F088F9E8E7C4E9053059E700BF96
:1042CC0000E100E06C14002001000200010003007A
:1042DC0000ED00E04FF08042012353600023C2F850
:1042EC000031014A1370704793140020014B0122D6
:1042FC001A707047931400204FF08043D3F80031AC
:10430C0023B9034B187800F0010070470120FAE73D
:10431C0093140020094B4FF0FF32C3F808230022FE
:10432C00C3F84025C3F84021C3F84425C3F8442101
:10433C00C3F84825C3F84821704700BF00800040EF
:10434C00084B094A1B78012B16BF4FF440314FF430
:10435C0000310023C2F84813C2F808130BB9C2F895
:10436C00403170479814002000B0004070B5EFF356
:10437C00108472B6094A0A4B0025D2F80415D2F8FB
:10438C0004612EB1596801315960C2F80451F4E747
:10439C005B6804B962B6C0E9001370BD00B00040A0
:1043AC0098140020094BD3F80435C01A20F07F4331
:1043BC0023F001033BB120F07F40B0F5000F8CBF20
:1043CC000220002070470120704700BF00B0004061
:1043DC00104B4FF40062C3F88020BFF34F8FBFF334
:1043EC006F8FC3F880210C4B01225A609A60D3F86E
:1043FC000425002AFBD10949C3F808134FF44031B6
:10440C00C3F84813C3F84021C3F84421C3F804216E
:10441C00704700BF00E100E000B000400200030064
:10442C0008B5144BD3F8042522F00302C3F8042575
:10443C00D3F8082542F00302C3F80825102292FA9B
:10444C00A2F2B2FA82F2092A04DD0B4840F2913151
:10445C0002F0BEFDC3F810250122DA60074A92680B
:10446C00C3F80022064B4FF48072C3F880211A6007
:10447C0008BD00BF008000401767020098140020A0
:10448C0000E100E008B50A4B4FF48072C3F88020BD
:10449C00BFF34F8FBFF36F8F0649C3F88021012004
:1044AC004860FFF737FF044B086100221A7308BD00
:1044BC0000E100E0008000409814002010B5234C6F
:1044CC000023FF224FF0FF314FF0FF30C4E904010D
:1044DC00237062736360FFF7D5FFFFF779FF1C4B06
:1044EC004FF400621A60A1691A4A31B901231360B2
:1044FC00184B0222C3F8042310BD174B1748C3F8FE
:10450C00A805C3F8AC15C3F85C294FF40022C3F816
:10451C000425134A0521C2F8401501211160D2F877
:10452C0040110029FBD04FF40021C3F808150121DC
:10453C005160D1600021C2F84011C2F84015C3F897
:10454C00A815C3F8AC15C3F8AC15D1E79814002026
:10455C0000E100E000B0004000F00140408100406C
:10456C0000800040014BD3E90401704798140020EF
:10457C00014BD3F80405704700B0004013B56846F2
:10458C00FFF7F4FEDDE90004FFF700FB024B00210E
:10459C00E4FB030102B010BD0080841EB1F1FF3FAB
:1045AC0008BFB0F1FF3F2DE9F041424C05460E46E5
:1045BC003AD1414DD5F800318BB3404E404BC6F843
:1045CC000835FFF7BDFE4FF000080123A36084F807
:1045DC000D80FFF757FFFFF723FF3A4BC5F800811B
:1045EC00394FC6F8A8354FF40023C6F8AC75C6F899
:1045FC00043504F049FFD5F800312BB10123C5F87F
:10460C0000817B60FB60F4E7013041F10001022383
:10461C00C4E904012370FF236370BDE8F08104F04A
:10462C0033FFC51C41F10006D4E90473B34208BF43
:10463C00AF42F2D0214B224AC3F80825FFF780FE87
:10464C001D4A4FF4803125F07F480023C2F808132F
:10465C004046C2F84813C2F84031FFF7A3FE20B120
:10466C0040F226316C2002F0BDFCC2F84085C2F845
:10467C0044132378012B06D127F07F473846FFF7E8
:10468C0091FE0128FAD0002301276373A760FFF77E
:10469C00F9FEFFF7C5FE094B27704FF00042C3F837
:1046AC00042504236370044BC4E90456C3F848730F
:1046BC00B3E700BF9814002000B0004000F00140A8
:1046CC000000088000B1004000800040032870B555
:1046DC002D4B06D9011FC9B201292FD940F27631D1
:1046EC000BE0D3E90441B1F1FF3F08BFB4F1FF3F48
:1046FC0006D11B7B23B940F255316C2002F072FCC1
:10470C002249234D00F110040123800003FA04F424
:10471C00C5F808430B5000F1804101F50041D1F878
:10472C004005101A022805DDC1F84025C5F80443E0
:10473C00012002E00020C1F8400570BD1C782CB1AE
:10474C005B78834202D140F27231D6E7114B124EA4
:10475C0022F07F458A0013444FF480348C400022B1
:10476C00C6F808432846C6F848431A60FFF71AFEF5
:10477C0040B901F5A87146F82150C6F80443C6F8B3
:10478C004443D5E71046D8E79814002040800040F9
:10479C000080004040B1004000B0004008B520B19E
:1047AC004FF461716C2002F01DFC014808BD00BF84
:1047BC0040810040032837B508D9041FE4B2012C0E
:1047CC0019D940F2CA316C2002F00CFC234900F1DB
:1047DC00100201239340C1F8083300F5A87300229E
:1047EC0041F823201E4B81005A5053F8203000937F
:1047FC00009B03B030BD1B4D2B7893B16A7882427D
:10480C000FD1194A1949C2F80815012B01D1FFF72C
:10481C0039FE00232B704FF0FF324FF0FF33C5E908
:10482C000423134A4FF48033A340C2F80833C2F870
:10483C00483304F5A87352F82300FFF7B3FD0128A1
:10484C0018BF0C4B22B24FEA84041CBF0021195133
:10485C00084B53F822300193019BCAE700800040BB
:10486C00408100409814002000F0014000000880B6
:10487C0000B0004040B1004010B50A4B0446012284
:10488C0010B1C3F8442310BDC3F84823FFF7FAFD59
:10489C00054B4FF0FF304FF0FF31C3E904011C70A2
:1048AC00F1E700BF00B00040981400201F4A08B583
:1048BC00D2F80433D90311D5D2F8403173B10023A7
:1048CC00C2F84031D2F84005FFF76CFD30B14FF41F
:1048DC008033C2F80833042001F094FE134AD2F856
:1048EC0004339B0311D5D2F8443173B10023C2F8C1
:1048FC004431D2F84405FFF755FD30B14FF4003385
:10490C00C2F80833052001F07DFE084BD3F80421D2
:10491C0032B10022C3F80421054A536801335360B5
:10492C00044B4FF40062C3F8802108BD00B0004076
:10493C009814002000E100E038B5364C637BFF2B67
:10494C0064D0237883B10122022B227319D1324B0C
:10495C004FF40022C3F80825002323704FF0FF32D8
:10496C004FF0FF33C4E904232C4BD3F8042310037A
:10497C000DD5D3F84C2152B140F20F416C2002F00E
:10498C0031FB022360782370FFF714FFECE7D3F8B8
:10499C00042351030DD5D3F8483153B10220FFF74E
:1049AC0009FF1F4B4FF48072C3F88021022001F0E5
:1049BC0029FE1A4BD3F8042392030DD5D3F84431B6
:1049CC0053B10120FFF7F6FE154B4FF48072C3F87C
:1049DC008021012001F016FE104DD5F80433DB03C5
:1049EC0016D5D5F840319BB10020FFF7E3FE0C4BF8
:1049FC004FF48072C3F880210020FF236373A06002
:104A0C00C5F80002BDE8384001F0FCBD0620F9E70E
:104A1C0038BD00BF9814002000F001400080004019
:104A2C0000E100E02DE9F04F97B01C46CDE90212F1
:104A3C00DFF8FCA28046FFF795FD4FF08042012382
:104A4C00C2F80835DAF800200F461360B94908227D
:104A5C0002EB441253185558B3F80E90CDF8109041
:104A6C00D3E901B201EB441C06921C7B5A7BDB6838
:104A7C0000920CF1080C07930646BCE80F000DF1F0
:104A8C00380EAEE80F009CE803008EE8030025F01A
:104A9C007F40FFF77BF84B4601331C44A64B9842F2
:104AAC00044400F237829C4200F3E480002CC0F2F4
:104ABC00C180FFF721FC009B012B024608D0DAE9EC
:104ACC000613B3F1FF3F08BFB1F1FF3F00F0B78011
:104ADC000192FFF7A1F940F256339842019A00F087
:104AEC00D78040F2F553984200F0CF80B0F5C67FE6
:104AFC0000F0C58000230193002103200591B7F13C
:104B0C00FF3F08BFB6F1FF3F1FD0AE4277EB0B0360
:104B1C00C0F08280B6EB050C67EB0B03BCF5000F05
:104B2C0073F1000380F00082A5EB060CBCF1000FC2
:104B3C0033460ADD0598002800F0AD809AF8200075
:104B4C0000280CBF0846002000E0434615F1FF3951
:104B5C00A9EB030C4BF1FF3184454B4657DB002A84
:104B6C0041D00993029B0891B9EB080861EB030251
:104B7C000292FFF751F940F2563C6045DDE908130B
:104B8C00029A00F0DD8040F2F55C604500F0BE80DA
:104B9C00B0F5C67F14BF09201620804572F10002C3
:104BAC0080F0BA80039A012A00F0CC80059A002A82
:104BBC0073D1B7F1FF3F08BFB6F1FF3F6DD0B6EB35
:104BCC00090C67EB0102BCF1050F72F1000080F2D9
:104BDC008481BCF1010F72F1000318DA39463346B7
:104BEC00059FB14668E0DAE90620B0F1FF3F08BF47
:104BFC00B2F1FF3FB5D0DDF804C0AA1A6BEB000090
:104C0C00624570F10002ACD2009A012AA9D00026AC
:104C1C00304617B0BDE8F08FB5EB060C6BEB070315
:104C2C00BCF5000F73F1000380D340F2317170209A
:104C3C0002F0D8F904F1F45404F5902439E7002873
:104C4C007FF446AF0190FFF7E7F840F256339842F5
:104C5C00019A00F04B8140F2F553984200F01D810F
:104C6C00B0F5C67F00F01F8101230320114601928D
:104C7C00059344E704F1614404F5F70419E70021B6
:104C8C000D2303200193059139E73223019333E778
:104C9C001C23019330E7084658E7484605930291D8
:104CAC00FFF77CFC0299059B0027B1F1FF3F08BF81
:104CBC00B9F1FF3F00F0338123F07F402A1A22F034
:104CCC007F42013AB2F5000FA1D2069B5B191B1A69
:104CDC0023F07F43B3F5000F99D80291FEF756FFEE
:104CEC00164B0299A4EB000898453BD3041B9C423D
:104CFC00C0F0DF80104B984530D89C4240F22881A0
:104D0C00C4F1614404F5F704A0462CE03B20804537
:104D1C0072F10002FFF446AF0593009B02915F1EF7
:104D2C00484618BF0127FFF739FC059B0299BCE7E1
:104D3C00B814002030100020FF7F841E0040420F6A
:104D4C0025202AE7B7F1FF3F08BFB6F1FF3F00F07F
:104D5C00F58039463346B1460027ADE708F1F458E3
:104D6C0008F5902844467D4B93F8283023B9049BD2
:104D7C001E33A34280F2A580039B012B04D001209B
:104D8C000291FFF717FD0299049B4BB1A8EB0302AC
:104D9C00012000230291FFF799FC0299002854D0BE
:104DAC000023424618460291FFF790FC02990646F2
:104DBC0000284AD0009BDAF81820012BDAF81C30B6
:104DCC0000F08480002F44D1B3F1FF3F08BFB2F153
:104DDC00FF3F00F098800120FFF74EFD9AF820303D
:104DEC00002B40F08980049A1932A24280F2A180F3
:104DFC000024A8EB020223460220FFF767FC30B127
:104E0C00DAF800301C604FF08043C3F80845069B6D
:104E1C001093079B119300238DF850300A934FF099
:104E2C00FF324FF0FF33CDE90E5BCDE90C230AAD19
:104E3C000FCD4A4C0FC40FCD0FC495E80F0084E87A
:104E4C000F00304617B0BDE8F08F0120FFF7B2FC21
:104E5C00DDE6B3F1FF3F08BFB2F1FF3F0BD000918D
:104E6C00FFF72AF84FF0FF324FF0FF33CAE9062361
:104E7C000099002FB2D0019BB9EB030261F1000342
:104E8C000520FFF723FC00285DD09AF82030002B7A
:104E9C00A9D101238AF82030A5E73221012335203E
:104EAC00019105932BE60D2101231020019105930F
:104EBC0025E62A4B93F828306442A046002B7FF459
:104ECC005BAF4FF4F261702002F08CF8B3F1FF3F4E
:104EDC0008BFB2F1FF3FCCD0C1E74846089302911E
:104EEC00059FFFF75BFB0299089BDEE61C21012363
:104EFC001F200191059302E60520FFF75BFC0023C0
:104F0C008AF820306FE7FEF78DFF04F0BDFACAE98E
:104F1C00060160E740F22141702002F063F840F294
:104F2C007C71702002F05EF840F23571702002F056
:104F3C0059F840F2BA71702002F054F840F2A361B3
:104F4C00702002F04FF840F22621702002F04AF84F
:104F5C0040F65801702002F045F800BF38140020CC
:104F6C002DE9F04F8F4F97F8214004EB44033B445D
:104F7C0083B05E7A202E48D08B4BE5B26400002BB8
:104F8C0000F08980894BDFF82892002B5FD006EB6C
:104F9C00451207EB420A4FEA45189AF82830013BB4
:104FAC00DBB2052B34D8834A12F803B0BBF1090FDE
:104FBC002ED0AFF30080EFF3108372B62C443C4438
:104FCC009AF829206272A27AB24204BF2022A272FD
:104FDC0013B9AFF3008062B6B044730107EB480815
:104FEC0009EB4616012259F80330706888F828201E
:104FFC005946984797F8214004EB44033B44E5B2EB
:10500C005E7A202E4FEA4404C1D103B0BDE8F08F84
:10501C0040F26E61702001F0E5FF62B6B04473019E
:10502C0007EB480809EB4616012259F80330706863
:10503C0088F828205946984797F8214004EB4403F8
:10504C003B44E5B25E7A202E4FEA4404DDD006EBF9
:10505C00451207EB420A4FEA45189AF82830013BF3
:10506C00DBB2052BD4D8534A12F803B0BBF1090FAD
:10507C00CED0AFF30080EFF3108372B62C443C44D7
:10508C009AF829206272A27A964204BF2022A27258
:10509C00002BC3D1C1E7454BDFF818B1DFF810A1E5
:1050AC004FF02009002B51D006EB451207EB4202C2
:1050BC004FEA451892F82830013BDBB2052BA7D8F4
:1050CC001BF803100929A3D0EFF3108372B62C44FC
:1050DC003C4492F829206272A27A964208BF84F866
:1050EC000A90002B54D0B04407EB480873010AEB2C
:1050FC00461601225AF80330706888F82820984721
:10510C0097F8214004EB44033B44E5B25E7A202E31
:10511C004FEA4404C8D178E762B6B044730107EB98
:10512C0048080AEB461601225AF80330706888F8D2
:10513C002820984797F8214004EB44033B44E5B200
:10514C005E7A202E4FEA44043FF45FAF06EB451223
:10515C0007EB42024FEA451892F82830013BDBB2CC
:10516C00052B3FF655AF1BF8031009293FF450AF40
:10517C00EFF3108372B62C443C4492F829206272EF
:10518C00A27A964208BF84F80A90002BC5D1C3E7D7
:10519C000191AFF3008062B6B044019907EB480867
:1051AC00A4E700BFB81400200000000000000000BD
:1051BC0030100020C81C02002DE9F04F85B00D46C0
:1051CC0014461F469DF838B0FEF7AAFD2E68696894
:1051DC00031947F10002B342019372EB01030292EF
:1051EC00C0F0CA80DFF8A891DFF8A8810BEB4B0365
:1051FC004B440393DA46039B1C7A202C3BD040F2A1
:10520C00F5578C460FE06B7B012B02D0537D012BA5
:10521C0056D004EB4A1409EB440494F82940202C92
:10522C0029D0D5E9006C08EB44124FEA441B916875
:10523C001369D0685B1840F100009E427CEB0003C0
:10524C00E1D240F2563740F2F55608EB0B0C2968C8
:10525C00AB68DCF808006A685B1842F100029842FF
:10526C00DCF80C3093411AD39CF81530012B02D08A
:10527C006B7B012B03D0012005B0BDE8F08F411AE8
:10528C000091FEF7C9FDB84200993FD0B04228D03A
:10529C00B0F5C67F14BF01230E239942EBDA08EB5D
:1052AC000B032A7C197E91421FD904EB4A1409EB9B
:1052BC00440494F82940202CDDD04FEA441BC4E769
:1052CC00761AFEF7A9FD40F25633984220D0B84228
:1052DC0009D0B0F5C67F14BF01230E239E42B0DB6C
:1052EC0097E73323D9E73323F8E7D3E902611C6945
:1052FC005B7DA61941F10001012B0BD0019BB34240
:10530C00029B8B4138D3C5E9006174E71D23C4E7C8
:10531C001D23E3E76B7B012BF0D00091FEF77CFDA6
:10532C0040F25633984200992CD040F2F5539842F3
:10533C0026D0B0F5C67F14BF01230E239C42DDDAC4
:10534C00FEF76AFD40F2563398421FD040F2F553F7
:10535C00984219D0B0F5C67F14BF01260E26C3445F
:10536C00DBF80830DBF80C10F618019B41F100015A
:10537C00B342029B8B41C6D2002005B0BDE8F08F32
:10538C003323DBE71D23D9E73326E8E71D26E6E7C1
:10539C00B8140020301000202DE9F047154692F883
:1053AC00008092F80BC0AF7A12891C4686B000239D
:1053BC00E3602361C4E9003327749DF8389084F8C6
:1053CC000DC00646A3606361E28184F811800F462C
:1053DC00B8F1000F42D1FEF7E7FBD5E904C24C4B04
:1053EC00C31841F1000E9C4572EB0E030AD3013E2B
:1053FC0047F1FF37C4E900674FF47A73A36006B036
:10540C00BDE8F087263041F10001844572EB0103C1
:10541C00EDD3288901300021844572EB01036AD356
:10542C00BCEB000062EB010104F10C03009303AA36
:10543C0004ABFEF71BFC039B6A68288947331344B3
:10544C001844FEF76DFCDDE90432C01A20F07F40F1
:10545C00C4E90032A06006B0BDE8F0872D4804A96D
:10546C00801A04F10C02FEF7D5FB2B4B1B78202B7A
:10547C0024D02A490B69D1E90521053342F1000AF0
:10548C0013EB01084AF1000A6B68227BE089473371
:10549C0010441844C4E9008AFEF742FC3246A0606E
:1054AC003B462869CDF800902146FFF785FE002881
:1054BC00A5D1C4E9006706B0BDE8F087637B16F19F
:1054CC00090847F1000A012BDED0FEF715FF002872
:1054DC00DAD1FEF7A1FC40F2563398420ED040F2DE
:1054EC00F55398420FD0B0F5C67FCDD116F1160802
:1054FC0047F1000AC8E74046414695E716F12508F2
:10550C0047F1000AC0E716F13B0847F1000ABBE778
:10551C000040420FFF7F841E3014002038140020FE
:10552C002DE9F047374DDFF8E08000EB40032B44CA
:10553C0006461C7A4700FFF71BF84FF0200C4FEA89
:10554C00461E08EB44110EEB0403D1F808A00A69BF
:10555C00AAEB000929F07F49B9F5000F05EB4303CD
:10556C000DD812EB0A02121A22F07F42B2F5000F8C
:10557C0005D8BCF1200F0BD12046BDE8F08793F87D
:10558C002930202BA4461C46DBD1BCF1200FF3D0D4
:10559C00BB192B440CEB461205EB420293F8088026
:1055AC0092F829201A72710144464FF0040E0B191F
:1055BC0005EB430322469445204683F828E093F8F4
:1055CC002940F4D1BB192B440A4493F80AE0BEF1EC
:1055DC00200F5FFA8EFC18BF8C443E4418BF05EBBD
:1055EC004C0C05EB4202354408BF83F809804FF0A0
:1055FC00200318BF8CF82980A87282F82930204625
:10560C00BDE8F087B8140020301000202DE9F041DF
:10561C004E4D01EB41032B440C461E7A202E804646
:10562C004FEA410741D14A4B0BB1AFF3008003F075
:10563C002BFF95F82230202B0AD0464BD3E904E2FD
:10564C0010F1020C41F10003E64572EB030331D378
:10565C00202E0AD042463346FFF7E4F900283FD00B
:10566C0085F822600220BDE8F081D5E90623B3F16C
:10567C00FF3F08BFB2F1FF3F1FD195F8203043BB6D
:10568C000420FFF797F803F00DFF0020FFF7F4F864
:10569C0029684FF08042202085F8220000230B60FF
:1056AC000120C2F80835BDE8F0810846FFF738FF45
:1056BC008642B8D00020BDE8F081FEF7FDFB4FF02C
:1056CC00FF334FF0FF32C5E9062395F82030002B4D
:1056DC00D6D00520FFF76EF8002385F82030CFE7F1
:1056EC003B192B4406EB441205EB420293F808E0FD
:1056FC0092F829201A72610173460420CA189C463C
:10570C0005EB4202664592F8293082F82800F5D163
:10571C003B192B443C44987A2028C2B218BF52182B
:10572C00614418BF05EB420205EB4101254408BF5B
:10573C0083F809E04FF0200318BF82F829E085F8C0
:10574C000AC081F829300020BDE8F081B81400208F
:10575C000000000038140020F8B5194A194D002338
:10576C0042F2200020214FF0FF364FF0FF37A97294
:10577C00288185F82130136082F82830C2E902674D
:10578C00AB73C5E906671C4685F8221085F82030F6
:10579C0005F1280202F814300134202CFAD101262C
:1057AC000948EE7301F0D2FD084B1870084B1C70C1
:1057BC0001F03CFE2860FEF781FE85F82360F8BD01
:1057CC0038140020B81400206D4F0000681400201D
:1057DC00301400202DE9F04F85B003F055FEC04E7B
:1057EC000746884603F05EFED6E90223B3F1FF3F7D
:1057FC0008BFB2F1FF3F05D04FF0FF324FF0FF333F
:10580C00C6E9022396F82830ABB94FF40C71B06995
:10581C00FEF7D2FA33697269B169023342F10002C0
:10582C005B1842F100021B1842F100029F4278EB18
:10583C00020380F06181AB4C4FF0FF304FF0FF3131
:10584C00FEF7ACFEE37B002B40F04581A64991F8B6
:10585C0000B00122BBF1200FE27300F0378120224F
:10586C000A7084F82220A373336094F8213003EB80
:10587C00430AA2445FFA83F99AF808505B009542F8
:10588C00009307D0994B03EB45102A46407E012824
:10589C0000F0C580009BDFF858A203EB0908202D0F
:1058AC00A0444FEA491708D04846FFF739FE854215
:1058BC0003D098F80850202DF6D1BAF1000F01D082
:1058CC00AFF3008003F0E0FD94F82230202B09D0D8
:1058DC00D6E9042310F1020E41F1000C724573EB72
:1058EC000C03E6D3202D38D02B460122FFF79AF873
:1058FC00002859D084F8225007EB0B0304EB430328
:10590C0093F82820022A1DD1009A4A4422440621E9
:10591C0083F82810917ACBB220291CBFDB1904EB39
:10592C0043035F4418BF83F829B0009B08BF82F87B
:10593C0009B04B44234404EB470783F80AB02023F7
:10594C0087F82930FF232374009B4B441C44637A53
:10595C00202B5DD105B0BDE8F08FD4E90623B3F15F
:10596C00FF3F08BFB2F1FF3F07D0FEF7A5FA4FF09B
:10597C00FF324FF0FF33C4E9062394F82030002B9C
:10598C003FD10420FEF716FF03F08CFD0020FEF73C
:10599C0073FF21684FF080420023202084F82200FE
:1059AC000B60C2F80835A7E77B1904EB430398F8A2
:1059BC00080093F8293088F8083002460421134671
:1059CC00BA1804EB42029D4282F8281092F8292062
:1059DC00F5D198F80A1088F80A30CAB220291CBFF1
:1059EC00D21904EB42023B4404EB430318BF82F888
:1059FC0029004FF0200208BF88F8090083F82920FD
:105A0C0057E70520FEF7D6FE002384F82030B8E7D0
:105A1C00384B187805B0BDE8F04F01F0C3BC0978DD
:105A2C00202914D0316970694F1DB16940F1000013
:105A3C00791840F10000019003EB4213D3E9020204
:105A4C0088420198824128BFC3E9021022E701FB7A
:105A5C000531487D17F1090148F1000C0128CDF8FA
:105A6C0004C0E9D0CDE90251FEF746FCDDE9022184
:105A7C001E4B10B19AF80850DEE7CDE90221FEF773
:105A8C00CBF940F25635A842029A184B0CD040F292
:105A9C00F555A84214D0B0F5C67F03990AD00098EA
:105AAC0048442044057AC7E717F1250148F1000066
:105ABC000190F4E717F1160148F100000190EEE7B0
:105ACC0017F13B0148F100000190E8E74FF4317108
